:020000040800F2
:1000000048080020D5020008273B0008D335000827
:10001000253B0008A11E0008154000080000000054
:10002000000000000000000000000000813F000808
:10003000E91E000800000000293B0008833F00087B
:10004000EF020008EF020008EF020008EF020008CC
:10005000EF020008EF020008EF020008EF020008BC
:10006000EF020008EF020008EF020008EF020008AC
:10007000EF020008EF020008EF020008EF0200089C
:10008000EF020008EF020008EF020008EF0200088C
:10009000EF020008EF020008EF020008EF0200087C
:1000A000EF020008EF020008EF020008EF0200086C
:1000B000EF020008EF020008EF020008EF0200085C
:1000C000EF020008EF020008EF020008EF0200084C
:1000D000EF020008EF020008EF020008EF0200083C
:1000E000EF020008EF020008EF020008EF0200082C
:1000F000EF020008EF020008EF020008EF0200081C
:10010000EF020008EF020008EF020008EF0200080B
:10011000EF020008EF020008EF020008EF020008FB
:10012000EF020008EF020008EF020008EF020008EB
:10013000EF020008EF020008EF020008EF020008DB
:10014000EF020008EF020008EF020008EF020008CB
:10015000EF020008EF020008EF020008EF020008BB
:10016000EF020008EF020008EF020008EF020008AB
:10017000EF020008EF020008EF0200080000000094
:10018000EF020008EF02000800F002F800F092F819
:100190000AA090E8000C82448344AAF10107DA45E2
:1001A00001D100F087F8AFF2090EBAE80F0013F0A2
:1001B000010F18BFFB1A43F001031847E047000086
:1001C00000480000103A24BF78C878C1FAD8520716
:1001D00024BF30C830C144BF04680C6070470000C1
:1001E0000023002400250026103A28BF78C1FBD840
:1001F000520728BF30C148BF0B6070476E2900F01E
:100200002D82702900F06F83662904F02A83652906
:1002100004F02783672904F02483612904F02383F1
:1002200003681B0A28BF41F08001692900F0DA81C8
:10023000642900F0D781752900F0D4816F2900F07E
:10024000FC82782900F03B83E92900F09782E429B9
:1002500000F09482F52900F09182EF2900F0F982F4
:10026000F82900F03A830368DB0928BF41F08001D8
:10027000632901F03D80732901F04280E32901F0F8
:100280004D80F32901F05280002070471FB504F023
:10029000E3FA01F09DF804000020002104F0DAF8F0
:1002A000401C60600020002104F0BEF8E0601FBD2B
:1002B00010B510BD01F05EF81146FFF7E7FF03F03F
:1002C000A7FF01F03BF903B4FFF7F2FF03BC01F015
:1002D00083F900000948804709480047FEE7FEE728
:1002E000FEE7FEE7FEE7FEE7FEE7FEE7FEE7FEE7E6
:1002F00004480549054A064B7047000005400008C0
:100300008901000848020020480800204804002015
:100310004804002053EA020C00F069802DE9F04BFC
:100320004FF00006002B1FBFB3FA83F503FA05F464
:1003300024FA05F65E4012BF1643B2FA82F502FABD
:1003400005F4C5F120051EBF22FA05FC44EA0C04A1
:10035000203556EA044C4FEA144418BF641C4FF091
:1003600000084FF00009904271EB030C39D30029CB
:1003700019BFB1FA81F701FA07F6B0FA80F700FA6F
:1003800007F6C7F120071EBF20FA07FC46EA0C0655
:100390002037B6FBF4FCA7EB0507103F07F01F0B57
:1003A000CBF120060CFA0BFB2CFA06F644BFB34641
:1003B0000026202FA4BF5E464FF0000B5BEA060C20
:1003C00008BF4FF0010B19EB0B09ABFB027C48EBAC
:1003D0000608C01B06FB02CC0BFB03CC71EB0C0127
:1003E000C1E70B46024641464846BDE8F08B13B5CF
:1003F0004FF000004FF00001AFF30080BDE81C405B
:10040000704700001CB50C46064B7B4469460090C3
:10041000204600F03CF904460020694600F04AF905
:1004200020461CBDA702000010B5431C02E010F8D6
:10043000011B71B18107FAD14FF0013202C88C1A49
:100440008C4314EAC211F9D0C01A0A0603D0C01EA8
:1004500010BDC01A10BD0A0401D0801E10BD0902D3
:10046000FCD0401E10BD10B5203AC0F00B80B1E8A2
:100470001850203AA0E81850B1E81850A0E81850D9
:10048000BFF4F5AF5FEA027C24BFB1E81850A0E8E2
:10049000185044BF18C918C0BDE810405FEA827CFC
:1004A00024BF51F8043B40F8043B08BF7047D20713
:1004B00028BF31F8023B48BF11F8012B28BF20F8B4
:1004C000023B48BF00F8012B70474FF0000200B517
:1004D000134694469646203922BFA0E80C50A0E867
:1004E0000C50B1F12001BFF4F7AF090728BFA0E815
:1004F0000C5048BF0CC05DF804EB890028BF40F8E1
:10050000042B08BF704748BF20F8022B11F0804F22
:1005100018BF00F8012B704770477047704770B5DF
:10052000044685690068C10601D5302600E0202612
:10053000C00707D070BDD4E9012130469047206A3A
:10054000401C20626D1EF6D570BD70B504468569ED
:100550000078C00707D170BDD4E901212020904761
:10056000206A401C20626D1EF6D570BD09684A05E0
:1005700001D540B27047C905FCD500B27047096883
:100580004A0501D5C0B27047C905FCD580B2704795
:1005900070B50C460546012A05D02878800600D59E
:1005A000EA69002302E0012305E05B1C934202D2CA
:1005B000E05C0028F9D1A869E618C01AA861286A89
:1005C000184428622846FFF7AAFF04E0D5E9012174
:1005D00014F8010B9047B442F8D32846FFF7B5FF53
:1005E00070BD00002DE9F041064600241068752911
:1005F000314616A510D0FFF7B9FF002802DA4042B5
:1006000013A507E031688A0701D512A502E0490762
:1006100004D511A5012401E0FFF7B1FF00210A2252
:1006200006F1240709E0B0FBF2FCB0FBF2F302FB99
:100630001C00303078541846491C0028F3D123465A
:100640002A463046BDE8F04100F061BA00000000E3
:100650002D0000002B00000020000000116802683F
:10066000006A530501D508700AE0D30501D508805A
:1006700006E0130603D5C217C1E9000200E00860D6
:100680000120704701694A1C02610878704700B573
:100690008FB0CDE901310021059105497944CDE9BB
:1006A00003101146684600F029F90FB000BD0000A4
:1006B000E5FFFFFF0A6802F8010B0A6070470000BF
:1006C0002DE9FF5F15468A460446DFF8AC80F84402
:1006D0000027D8E900103E46CDE9001010E03AF8B6
:1006E00016106A4602A800F025FE411C07D02178AA
:1006F000890603D5E269391891420DD80744761C62
:100700002078800602D5E069B84205DDAE42E6DB1E
:100710003AF816000028E2D1A069C01BA06120466B
:10072000FFF7FDFED8E90010CDE90010002017E02A
:100730003AF818106A4602A800F0FCFDB0F1FF3F3D
:1007400081460BD000250DF1080B05E0D4E901210D
:100750001BF8050090476D1C4D45F7D308F10100CB
:10076000B0428046E4DB206A384420622046FFF72E
:10077000ECFEBDE8FF9F0000CE4100002DE9F041F6
:100780008046D21D22F007020025D2E90002F52999
:1007900015A614D0011E72F1000106DA0023D0EB79
:1007A000030063EB020211A608E0D8F800108B07E3
:1007B00001D50FA602E0490701D50EA60125114675
:1007C000002408F1240704E000F05CF930323A55C7
:1007D000641C50EA0102F7D12B46324621464046BE
:1007E000BDE8F04100F093B9000000002D000000CA
:1007F0002B0000002000000030B4002100F1240490
:1008000008E002F00705D208303542EA4372DB08FF
:100810006554491C52EA0305F3D10468002310A271
:10082000250707D5A40600D421B1C46901230DA270
:10083000641EC46130BC00F06AB910B5044621469C
:100840001068FFF79CFE02462046BDE810400023DA
:10085000D2E7D21D22F00701D1E90023CCE7000046
:100860000000000030000000F0B40D4601880905CA
:1008700002D5214C7C4402E01F4C7C440E34002104
:1008800000F1240608E002F00F071209E75D42EAD2
:1008900003721B097754491C52EA0307F3D102780B
:1008A0000023120704D5702D06D009B1022311349C
:1008B0002246F0BC00F02BB901231034F8E770B5E4
:1008C00004460D4621461068FFF759FE02462946A8
:1008D0002046BDE870400023C6E7D21D22F0070382
:1008E000D3E90023C0E70368126843F020030360E4
:1008F0000823C3610023B7E7304000002DE9F05F13
:10090000894604464FF0000ADFF874B1FB44C0F892
:1009100020A02046E1688847002874D0252806D00A
:10092000D4E901219047206A401C2062F1E70026AB
:100930005F462046E16888472028054607DB312DC1
:1009400005D2781910F8200C08B10643F1E7B0077A
:1009500001D526F00406C4F81CA00027C4F818A08E
:100960002A2D09D0284603F07EFB38B304EB870814
:10097000303DC8F8185019E059F8041B204604EB24
:1009800087029161E1688847012F054618D1E06927
:10099000002820DA26F020061DE0D8F8180000EB29
:1009A000800005EB40003038C8F818002046E168A8
:1009B0008847054603F057FB0028EED1012F0AD0E7
:1009C0002E2D08D12046E16888477F1C0546022F5E
:1009D00046F02006C4DBA069002803DA404246F056
:1009E0000106A061F00701D026F010066C2D0BD097
:1009F000682D09D04C2D39D06A2D35D0742D35D0C5
:100A00007A2D33D016E038E0E1682F46204688473B
:100A1000B842054609D16C2F26D04FF48060E168BA
:100A2000064320468847054604E06C2F1AD04FF451
:100A3000807006430DB3A5F14100192802D8203576
:100A400046F400664A462946204626604E46FFF791
:100A5000D5FB80B101280BD0F61D26F0070000F170
:100A6000080956E74020E4E78020D8E70020D6E7D1
:100A700006F104094DE7284652E7206ABDE8F09FD9
:100A8000C03F000030B5B0F10A024FEA900E71F19C
:100A900000034EEA817EB0EB0E0061EB91014FEA5C
:100AA000101E4EEA017E10EB0E0041EB11114FEAD1
:100AB000102E4EEA016E10EB0E0041EB11214FEAB1
:100AC000104E4EEA014E10EB0E0041EB1141401862
:100AD00041F100014FEAD00040EA41704FEAD101F4
:100AE00010EB80054FEA810444EA907444EB010462
:100AF0006D1944EB0404521BA3414FF0000348BF9F
:100B00000A3200D530BD401C41F1000130BD2DE955
:100B1000F0470D4699469246044600F124080168C4
:100B2000880604D5E06921F01001216000E0012071
:100B3000A84201DD471B00E00027A1697A1902EBFA
:100B40000900081AA0612078C00602D42046FFF7E9
:100B5000E6FC002608E0D4E901211AF806009047D7
:100B6000206A401C761C20624E45F4DB2078C006CB
:100B70000AD52046FFF7D3FC06E0D4E90121302056
:100B80009047206A401C2062381EA7F10107F4DC60
:100B900007E0D4E9012118F805009047206A401CBD
:100BA0002062281EA5F10105F3DC2046FFF7CDFCED
:100BB0002078000602D50220BDE8F0870120FBE77F
:100BC00070472DE9FF4F0C461E464FF0FF378BB0A4
:100BD000D2E90001DDF860800A908A46C1F30A5527
:100BE00005B93D46002108464FF00000BAF1000F5C
:100BF00000F4400005DA00EB80004FF4400101EA08
:100C000050004FEA9059B9F1010F00DDB9460A983A
:100C100050EA4A000ED044F61050A5F2FF35454385
:100C20002F14B8F1000F1ED07542291E1EDDC9F128
:100C300000021CE0B8F1010F4FF0000001D030219C
:100C400003E0F24305E02154401CB042FBDB304698
:100C50000022002121540B99C1F80880C1E900202D
:100C60000FB0BDE8F08FBD1B6D1CDEE74A4600DA11
:100C7000694206A800F0F0FB06AB93E8070003AB5F
:100C800083E8070050460A9900F0ADFC8DE80700A4
:100C9000A0F500501F3800900398002D0ADD42F2A5
:100CA0001F014A460844002303A90390684600F048
:100CB00016FF09E0A0F500504A461F38002303A99B
:100CC0000390684600F020FF8DE807000004000C48
:100CD00003D04FF0FF30410800E01046B8F1000F9C
:100CE00003D00022009215461EE0751E05D4FFF7C2
:100CF000C9FE303262556D1EF9D5B3460122084354
:100D000002D000227F1C04E02078302801D100228C
:100D10007F1E002A099784D01DE0112D07DAFFF706
:100D2000B1FE303262556D1C50EA0102F5D1084324
:100D300002D00098C8B10EE00021681E05E0235CD7
:100D4000625C63542254401E491C8142F7DBAB466F
:100D5000A81B401E0990002004F80B000B98099A6C
:100D6000C0F80880C0E9002B7AE711264FF0000890
:100D700057E72DE9F04F88460446D21D22F00701BF
:100D800091B0D1E90001CDE90A0103F044F902462E
:100D90000B98C00F01D02D2007E02068810701D5F6
:100DA0002B2002E0202101EAC000032A099001D093
:100DB000072A05DB03464146204600F00DFB0BE108
:100DC0002078800601D5E06900E00620B8F1650FC3
:100DD000814606D0B8F1660F18D0B8F1670F70D110
:100DE00031E00020B9F1110F009001DB112301E087
:100DF00009F101030AAA01A90CA8FFF7E2FEDDE947
:100E00000C70002609F10105834647E001204B469E
:100E100000904FF000470AAA01A90CA8FFF7D1FEE5
:100E2000DDE90DB00C995D46002610B909F101000D
:100E30000D18B9EB050003D4C0F1FF3609F1010527
:100E4000A5EB09002BE0B9F1010F01DA4FF0010920
:100E50000020B9F1110F0090484601DD112300E098
:100E600003460AAA01A90CA8FFF7ABFEDDE90C7046
:100E70004D4600268346207800070AD4AB4500DAA9
:100E80005D4601A8012D04DD411911F8011C30292E
:100E900007D04F4502DA17F1040F04DA0120824629
:100EA0000FE06D1EEEE7002F02DCED1B3E4403E079
:100EB000781CA84200DD7D1CB81B00F1010A4FF030
:100EC00000472078000703D4AA4501DB4FF0FF3A22
:100ED0000021B7F1004F0DF143088DF8431024D0E5
:100EE00002202B23002F01DA7F422D230A21021E2C
:100EF000A0F1010000DC5FB197FBF1FC97FBF1F280
:100F000001FB1C7C17460CF1300C08F801CDEEE714
:100F1000A8F1010003702188090501D5452100E0F1
:100F20006521A0F1010800F8011C09980FA9A1EBA7
:100F30000807FF1D00B10120411901EBEA70A1690A
:100F40003844081A401EA0612078C00602D420460A
:100F5000FFF7E5FA099828B1D4E901219047206A02
:100F6000401C20622078C00622D52046FFF7D7FA21
:100F70001EE0002E04DBB34502DD01A8805D00E029
:100F80003020D4E901219047206A401C2062761C61
:100F9000AAF101005FEA000A0AD100F019FAC0685C
:100FA0000168405CD4E901219047206A401C20621E
:100FB000281EA5F10105DCDC07E0D4E9012118F8C1
:100FC000010B9047206A401C2062381EA7F10107E0
:100FD000F3DC2046FFF7B9FA032011B041E6000028
:100FE0002DE9F04F04460D46D21D22F0070089B0CE
:100FF000D0E900974846394603F00DF80246F80F4D
:1010000001D02D2307E02068810701D52B2302E0C2
:10101000202101EAC0038DF820300BB1012000E04F
:101020000020032A824601D0072A04DB29462046F5
:1010300000F0D2F93FE12078800601D40D2500E0D0
:10104000E569C7F30A560D2D49DA00214FEA175B0F
:1010500008464FF00000002F00F4400007DA00EBD4
:1010600080004FF4400100EBD07001EA6000811570
:10107000012901DD4FF0FF3100224FEA850CBCF160
:10108000180F06D31346ACF118004FF08052C2403F
:1010900003E04FF4801323FA0CF30CF10C0CBCF1B9
:1010A000200F04D3ACF1200C09FA0CF001E007FA90
:1010B0000CF000294FF0004801DD18B90FE00ED107
:1010C00040450CD319EB02095F4121B9404502D1DB
:1010D0009F4329EA0209BBEB175F00D0761C2088EA
:1010E000000502D57B48784402E07A4878441938F4
:1010F00008AA302302F80A30037C0AF10101002E0D
:101100000AF1020A53546A4602DC4FF0300101E052
:101110004FF031014FF001088DF8001002D0A6F217
:10112000FF3603E059EA470100D06B4E002D02DC88
:101130002178090704D54FF002082E218DF80110FF
:10114000C44600210BE0C7F303433F01C35C491CC5
:101150006D1E02F80830052908F1010801DA002D9A
:10116000F1DC00210CE000EB1973491C1B786D1EAB
:10117000082902F808304FEA091908F1010801DAD4
:10118000002DF0DC21688B0602D516E0A8F10108DD
:10119000E04505DD02EB080313F8013C302BF5D0E8
:1011A000B8F1000F09DD02EB080313F8013C2E2B08
:1011B00003D1090701D4A8F10108002D05DD3E2166
:1011C00002F808106D1E08F10108407C002E02F89C
:1011D000080008F1010804DA2D20764202F8080020
:1011E00002E02B2002F808000A214FF47A708642B0
:1011F00008F101080BDB96FBF0F3303302F80830FE
:1012000096FBF0F308F1010800FB136601E0642E81
:101210000CDB642096FBF0F3303302F8083096FBC9
:10122000F0F308F1010800FB136601E00A2E06DB6B
:1012300096FBF1F0303002F8080008F1010896FB47
:10124000F1F001FB1060303002F80800A16908F1EC
:10125000010808EB050202EB0A00081AA0612078D9
:10126000C00602D42046FFF75AF9216A08AE01EB06
:101270000A00206204E0D4E9012116F8010B90472E
:10128000BAF1010AF7D22078C00602D52046FFF74E
:1012900046F96E4609E016F8010B3E280FD0D4E956
:1012A00001219047206A401C2062B8F10108F2D267
:1012B0002046FFF74AF909B00320BDE8F08F206A05
:1012C0002844206203E0D4E90121302090476D1EBC
:1012D000EBD3F8E70A38000002FCFFFF10B54369C2
:1012E00013B1AFF3008001E0FFF752F9012010BD08
:1012F000127800F124010A7000224A700122EDE701
:1013000011684FF0FF32E9E710B5436913B1AFF34D
:10131000008001E0FFF7D4F9012010BD128800F130
:10132000240182840022C2840122EDE711684FF07B
:10133000FF32E9E770B516460C46054600F040F866
:10134000036893F80101012806D0FF2C0FD8185D1F
:1013500068B101202C7070BDD3F8070132462146D8
:1013600003F2071303442846BDE8704018474FF0C6
:10137000FF3070BD754600F0EBF8AE4605006946DB
:10138000534620F00700854618B020B5FEF7B0FFA1
:10139000BDE820404FF000064FF000074FF0000876
:1013A0004FF0000B21F00701AC46ACE8C009ACE8F7
:1013B000C009ACE8C009ACE8C0098D467047000020
:1013C00010B500F005F8001D10BD00BF8930000009
:1013D00000487047080200202DE9F0411F460446EE
:1013E00003260168072A01F4006004DB08B116A592
:1013F00005E016A503E008B115A500E015A521F04C
:1014000010002060A069C01EA0610FB1401EA06145
:101410002046FFF784F84FB1D4E9012138469047C0
:10142000206A401C2062C01C206206E0206AFAE7A5
:10143000D4E9012115F8010B9047761EF8D2204619
:10144000FFF783F8BDE8F0814E414E006E616E00FB
:10145000494E4600696E66002DE9F0478146164602
:101460008AB0354878440DC88DE80D00324878447C
:10147000801C03AC0DC884E80D0041F69B30084485
:10148000372190FBF1F290FBF1F5A5F1800501FB0E
:1014900012041B3C02D56442012000E00020DFF86A
:1014A00098A080460027FA44AAF1BE0A0EE0E007A1
:1014B0000AD03246684607EB470101230AEB810157
:1014C00000F022FB8DE8070064107F1C002CEED199
:1014D000194F7F44AE3F19E0E80715D007EB041021
:1014E0000DF1180A90E80E008AE80E00C068F0427C
:1014F00001D1981908903246012306A903A800F0EB
:1015000003FB03AB83E807006D10641C002DE3D1DF
:101510004FF0010332466946B8F1000F03A802D02C
:1015200000F0DDFA01E000F0EFFAC9E90001C9F8C6
:1015300008200AB0BDE8F0871C35000010B504464D
:10154000AFF300802046BDE81040FEF7BCBE0000AF
:1015500000487047E80100204FF0013C50F8042B90
:1015600051F8043B9A4221D1A2EB0C03934313EAB6
:10157000CC1317D150F8042B51F8043B9A4215D1E3
:10158000A2EB0C03934313EACC130BD150F8042BBA
:1015900051F8043B9A4209D1A2EB0C03934313EA9E
:1015A000CC13DBD04FF00000704700BFD01A01BA57
:1015B000B1FA81F101F0180122FA01F0CB40C1F13A
:1015C0002001DBB2C0B2C01A2CFA01F3D11A914348
:1015D00011EAC311E6D1704701491820ABBEFEE7FE
:1015E0002600020070475FEA400C08BF91F0000F30
:1015F0004FEA8C234FEAC12243EA51514FEA1C5073
:1016000018BF00F5F0404FEA300018BF41F000412C
:101610005FEA6C5C00F02980BCF1FF3F08BF40F03E
:1016200080407047130C06BF12044FF0100C4FF0AF
:10163000000C130E04BF12020CF1080C130F04BFB0
:1016400012010CF1040C930F04BF92000CF1020C78
:10165000D30F04BF52000CF1010C11464FF00002F1
:10166000A0F11F00A0EB0C00704711F0004F08BF65
:10167000704731F000413FF4D5AF0B0C06BF0904B1
:101680004FF0100C4FF0000C0B0E04BF09020CF1D0
:10169000080C0B0F04BF09010CF1040C8B0F04BFE5
:1016A00089000CF1020CCB0F04BF49000CF1010CB6
:1016B000CCF12003A0EB0C0022FA03F302FA0CF2A7
:1016C00041EA030100F10100704720F07F4C80EAFD
:1016D000030023F07F47ACEB070303F57C5300F0D6
:1016E000004003F1FF032DE980494FEA154B09B48F
:1016F0004FEA144325EA0B4E24EA03480FF204266E
:1017000006EB132749083E785FEA320203FB0667BF
:10171000C7F5000707FB06F64FEA54374FEAD646EF
:1017200006F1020607FB066CCCF1005C4FEA1C4791
:101730002CEA074C07FB06F40CFB06F504EB1546F8
:101740004FEA961634BF00204FF000404FEAD137E1
:1017500006FB07FC4FEA1C4C0CFB0BF7D21B03FBF0
:101760000CF761EB07010CFB0EF7B0EB074072EBD7
:1017700017420CFB08F734BFA2EB0742B2EB07425B
:1017800061EB17414FEA0C444FEA910706FB07FC57
:101790004FEA1C4C0CFB0BF7B0EBC74072EB573217
:1017A00003FB0CF734BFA2EBC742B2EBC74261EBBD
:1017B00057310CFB0EF7B0EBC70072EB57720CFB06
:1017C00008F734BFA2EBC702B2EBC70261EB577157
:1017D000039F4FEA816141EA921104EBCC044FEA86
:1017E000D1374FEA826206FB07FC42EA90124FEAC9
:1017F00080604FEA1C4C0CFB0BF7D21B03FB0CF771
:1018000061EB07010CFB0EF7B0EB074072EB1742E0
:101810000CFB08F734BFA2EB0742B2EB074261EBC7
:1018200017414FEA8C554FEA910704EB9C2406FBC5
:1018300007FC4FEA1C4C0CFB0BF7B0EBC74072EBFC
:10184000573203FB0CF734BFA2EBC742B2EBC742DF
:1018500061EB57310CFB0EF7B0EBC70072EB577220
:101860000CFB08F734BFA2EBC702B2EBC70261EB77
:10187000577115EB4C254FEA816141EA92114FEA0D
:1018800082624FEAD13742EA901206FB07FC44F12C
:1018900000044FEA80604FEA1C4C0CFB0BF7D21B94
:1018A00003FB0CF761EB07010CFB0EF7B0EB0740F5
:1018B00072EB17420CFB08F734BFA2EB0742B2EB06
:1018C000074261EB174115EB1C154FEA813141EAE4
:1018D00092414FEA823242EA90424FEA80304FEA28
:1018E0000C7644F1000448EA03434EEA0B484FF0FB
:1018F000000EB2EB080C71EB030724BF62463946B9
:101900004EEB0E0E4FF0000B0018524149414BEBCD
:101910000B0BB2EB080C71EB03077BF1000B24BF40
:10192000624639464EEB0E0E4FF0000B0018524146
:1019300049414BEB0B0BB2EB080C71EB03077BF14E
:10194000000B24BF624639464EEB0E0E51EA0207E9
:1019500018BF46F0010616EB0E7655F1000254F161
:10196000000103D5BDE88901BDE80088BDE8890113
:10197000BDE80048B619524141EB0101A3F1010352
:10198000704780807F7E7D7C7B7A797877767675EC
:101990007473727171706F6E6E6D6C6C6B6A6A6964
:1019A0006868676666656464636362616160605FFE
:1019B0005F5E5E5D5D5C5C5B5B5A5A595958585777
:1019C00057565655555554545353525252515150DF
:1019D00050504F4F4F4E4E4D4D4D4C4C4C4B4B4B32
:1019E0004A4A4A4949494848484747474746464678
:1019F00045454544444444434343434242424241B3
:101A00004141002B9C4630D477002BD01CB54FEAC7
:101A1000370703B44FF010004FF01001BAF1000F78
:101A200006D0BCF1000FDCBF40F0080040F0080118
:101A30004FF000000FBCBDE810400BF1010BBBF1F3
:101A4000010F08BF5FEA170722BF12F1010211F16F
:101A500001014FF0004143F1000300F0004043EA70
:101A600000007047F9D35708D0E746EA064613F15D
:101A7000400F4FEA16461FDD13F1200FDFBF16435C
:101A80000A46002120335B42BED0C3F1200746EA5C
:101A9000064602FA07F74FEA164646EA0706C3F17A
:101AA000200722FA03F201FA07F721FA03F14FF0B7
:101AB000000342EA0702A7E746EA020646EA0646AC
:101AC0004FEA164646EA0106BCBF46EA0646360C11
:101AD0004FF000034FF000024FF0000194E72DE9B2
:101AE000804C9A46934670B491E8380007C831EAB2
:101AF000400C48BF34EA430C03D5FFF7E6FDFFF77F
:101B000080FFF0BCBDE8008C2DE9804C9A469346DE
:101B100070B491E8380007C810F0804F08BF13F088
:101B2000804F03D100F005F8FFF76BFFF0BCBDE874
:101B3000008C20F07F4780EA030023F07F4C07EB06
:101B40000C03A3F57C5300F00040A3F1FE0392F0D8
:101B5000000F00F0B38095F0000F00F077802DE9C2
:101B600001494FEA11404FEA144621EA004800FBC0
:101B700006FC24EA064708FB06F607FB08F800FB0C
:101B800007F718EB06484CEB164C4FEA124B18EBD4
:101B900007484FEA15464CEB174022EA0B4E0BFB69
:101BA00006FC25EA06470EFB06F607FB0EFE0BFBBE
:101BB00007F71EEB064E4CEB164C4FF000061EEBE3
:101BC000074E4CEB174B18EB0B0840F1000018EBDD
:101BD0000E0B58EB000840F100008F1A4FF0000187
:101BE0003CBFC943661B14BFB5EB040C00213CBFCE
:101BF000C943F61B4FEA17444EEA8E0E27EA044506
:101C00004FEA1C4704FB07622CEA074C05FB07F769
:101C10000CFB05F604FB0CFC16EB074642EB1742E7
:101C200016EB0C4642EB1C421BEB060658EB02027D
:101C3000414146EA9E0601D5BDE80189B6195241E7
:101C400041EB0101A3F10103BDE801894FEA14450D
:101C50004FEA114724EA054621EA074C05FB07F441
:101C600006FB07F70CFB06F105FB0CFC11EB07412B
:101C700044EB17444FEA124711EB0C4144EB1C4470
:101C800022EA074C05FB07F206FB07F70CFB06F6FA
:101C900005FB0CFC16EB074642EB174216EB0C4615
:101CA00042EB1C456A1854F1000148BF7047B61951
:101CB000524141EB0101A3F10103704795F0000F80
:101CC00037D04FEA11424FEA144721EA024624EA8C
:101CD000074C02FB07F106FB07F70CFB06F402FBBF
:101CE0000CFC14EB074441EB17414FEA154714EB8A
:101CF0000C4441EB1C4125EA074C02FB07F506FBAF
:101D000007F70CFB06F602FB0CFC16EB074645EB4F
:101D1000174516EB0C4645EB1C42121951F1000118
:101D200048BF7047B619524141EB0101A3F10103CD
:101D300070474FEA14454FEA114724EA054621EA65
:101D4000074C05FB07F106FB07F70CFB06F24FF00B
:101D5000000605FB0CFC12EB074241EB174112EBAE
:101D60000C4251EB1C4148BF7047921841EB0101F6
:101D7000A3F1010370470000464910B54A6822F4F8
:101D800040324A604A6843681A434A6001684A68B8
:101D900022F480724A6001684A68036942EA0322B9
:101DA0004A6001684A6822F040724A6001684A68E5
:101DB00083681A434A6001688A6822F400628A6074
:101DC00001688A68C3681A438A60816A6FF070622A
:101DD000D14201688A6822F070628A6001688A686C
:101DE0000CD0836A1A438A6001688A6822F04052E4
:101DF0008A6001688A68C36A1A4301E022F040528F
:101E00008A6001688A6822F002028A6001688A6832
:101E1000037E42EA43028A6090F82010002901689C
:101E20004A680FD042F400624A6001684A6822F4AE
:101E300060424A6001684A68174C436A04EB4333C6
:101E40001A4301E022F400624A600168CA6A22F47F
:101E50007002CA620168CA6A838B104C04EB035398
:101E60001A43CA6201688A6822F400728A600168B3
:101E70008A6890F8303042EA43228A6001688A68B2
:101E800022F480628A6001688A68406942EA8020A0
:101E9000886010BD0023014000E0FFFF0000F0FF5C
:101EA000FEE700000E48016821F0807101600168C2
:101EB00041F0807101600B48016821F0010101606F
:101EC000016841F0010101600021416000BF00BFD5
:101ED00000BF406808B10020704701207047000033
:101EE000FCED00E0001000E07047000078B5002431
:101EF000009490F83C20012A19D0012280F83C205F
:101F00000A6807230568092A13D9EE680A3A02EB22
:101F1000420293409E43EE600B788A680A3B03EBD3
:101F200043039A400368DD682A43DA6010E0022028
:101F300078BD2E6902EB420293409E432E610B78DE
:101F40008A6803EB43039A4003681D692A431A61B8
:101F50004A681F23072A13D205686E6B521E02EBD4
:101F6000820293409E436E630B790A885B1E92B295
:101F700003EB83039A4003685D6B2A435A6327E0AF
:101F800005680D2A12D22E6BD21F02EB82029340FB
:101F90009E432E630B790A88DB1F92B203EB830307
:101FA0009A4003681D6B2A431A6311E0EE6A0D3AEA
:101FB00002EB820293409E43EE620B790A880D3B4E
:101FC00092B203EB83039A400368DD6A2A43DA6224
:101FD000164B0568144A9D4206D10D68122D03D197
:101FE000556845F48005556005689D4218D10B6819
:101FF000102B01D0112B13D1536843F4000353600D
:10200000096810290CD10A490A4A0968B1FBF2F1A2
:1020100001EB8101490000E0491E00910029FBD13C
:1020200080F83C40002078BD0023014000200140A2
:102030008400002040420F000068C06C704770B5FB
:1020400004004FF0000503D0206C002610B107E01B
:10205000012070BD204600F01DF8666484F83C60E5
:10206000206CC00610D4206C20F4885040F0020090
:1020700020642046FFF780FE6664206C20F002009A
:1020800040F00100206400E0012584F83C6028460F
:1020900070BD000010B586B0044614216846FEF7F6
:1020A00014FA1149206888421CD1104800210268A6
:1020B00042F480720260006800F4807005900B4862
:1020C0001438026842F001020260006800F001006A
:1020D0000590022000900320CDE9010169460448E3
:1020E00000F00CF906B010BD002001404438024059
:1020F000000002402DE9F041044600680D46816869
:102100004FF0000749050BD58068C00508D5206C45
:1021100040F02000206484F83C700120BDE8F0818C
:1021200000F0F2F9064613E0681C11D025B100F06A
:10213000EBF9801BA8420BD920680068800707D400
:10214000206C40F00400206484F83C700320E5E734
:10215000206800688007E7D521686FF012000860EA
:10216000206C40F4007020642068816811F0405FAA
:1021700013D1217E89B9C16A11F4700F02D0806831
:1021800040050AD4206C20F480702064206CC004C8
:1021900003D4206C40F0010020640020BEE7000062
:1021A00018B50021009190F83C20012A07D00122A7
:1021B00080F83C2002689368DB0702D011E002201F
:1021C00018BD936843F0010393602E4A2E4B1268AA
:1021D000B2FBF3F202EB420200E0521E0092002A30
:1021E000FBD102689368DB0742D0036C40F20164C4
:1021F000A34343F48073036453685B0505D5036C04
:1022000023F4005343F480530364036CDB0404D5CC
:10221000436C23F00603436400E0416480F83C1003
:102220001A496FF02203136049680068CA0618490A
:1022300006D0884224D1816811F0405F13D01FE09E
:102240008842F8D0134A904203D1D1F80423D20631
:10225000F1D0114A904213D1D1F8041301F01F01BB
:102260001029E8D30CE0816841F08041816007E0EB
:10227000016C41F010010164416C41F001014164C5
:10228000002018BD8400002040420F0000230140C0
:1022900000200140002101400022014090F83C1044
:1022A00001290CD0012180F83C1001688A6822F0D5
:1022B00001028A6001688968C90702D007E002202C
:1022C0007047016C21F4885141F001010164002143
:1022D00080F83C100846704770B5044600F014F9C9
:1022E0000546601C02D004480078044400F00CF954
:1022F000401BA042FAD370BD780000202DE9F84FB2
:10230000DFF8BCA1002201250AF1040B03264FF0DF
:102310000F090BF1040E00BF0B6805FA02F423400D
:10232000A34270D10F7907F00307012F01D0022FCC
:1023300016D187684FEA420806FA08FC27EA0C071C
:10234000D1F80CC00CFA08FC4CEA070CC0F808C025
:102350004768A7430C79C4F3001494403C4344609D
:102360000C79E443A4070AD0C4684FEA420C06FA89
:102370000CF7BC438F6807FA0CF72743C7600C794A
:1023800004F00304022C12D1D40800EB840CDCF816
:1023900020405707FF0E09FA07F824EA0804D1F88D
:1023A000108008FA07F848EA0408CCF8208004688E
:1023B0004FEA420C06FA0CF7BC430F7907F003070B
:1023C00007FA0CF7274307604C6814F4403F70D0BD
:1023D0003C4C276847F480472760246822F00307B5
:1023E00004F480440094384C07EB040CDCF80848F3
:1023F00097074FEA177809FA08F7BC43334FB842FA
:1024000002D1002724E054E0314FB84201D1012726
:102410001EE0304FB84201D1022719E02E4FB842DA
:1024200001D1032714E02D4FB84201D104270FE05A
:102430002B4FB84201D105270AE02A4FB84201D1FB
:10244000062705E0284FB84201D1072700E00827FA
:1024500007FA08F72743CCF80878DAF8004057461F
:10246000D1F804C09C435FEACC3C00D51C433C60DF
:10247000DBF800405F46D1F804C09C435FEA8C3C27
:1024800000D51C433C60DEF800407746D1F804C01C
:102490009C435FEACC2C00D51C433C60084F0C37B2
:1024A0003C68D1F804C09C435FEA8C2C00D51C43E7
:1024B0003C60521C102AFFF42FAFBDE8F88F0000DB
:1024C000003C01404438024000300140000002401E
:1024D0000004024000080240000C024000100240CC
:1024E0000014024000180240001C0240426921EA28
:1024F00002030A4043EA0241816170470AB18161E7
:1025000070470904FBE7000001488068704700003D
:102510007800002070B5040025D094F83D00002517
:1025200020B984F83C50204600F004FA242084F8B6
:102530003D002068016821F0010101602068016808
:1025400041F4004101602068016821F4004101600C
:1025500000F050FB4D4A6168914201D84C4900E0BF
:102560004C49884201D2012070BD4B492368B0FB21
:10257000F1F15E6826F03F060E435E6063689342A9
:1025800006D94FF4967359434FF47A73B1FBF3F1C4
:102590002368491C1E6A26F03F06314319626168B0
:1025A000914210D84900401EB0FBF1F2521CC2F318
:1025B0000B02042A01D2042022E0B0FBF1F0401CFF
:1025C000C0F30B001CE0A268F2B301EBC10303EB04
:1025D0000116431EB3FBF6F35B1C43F480431B055B
:1025E00049D092B301EBC10202EB0111401EB0FBD6
:1025F000F1F0401CC0F30B0040F4804040F4004078
:102600002168CA694CF6FF739A431043C861D4E944
:10261000071001432068026822F0C00211430160E4
:10262000D4E9030101432068826848F2FF339A43EA
:1026300011438160D4E9050108432168CA6822F08A
:10264000FF021043C86001E00EE016E02068016858
:1026500041F0010101602564202084F83D002563DC
:1026600084F83E50002070BD01EB4106431EB3FBD1
:10267000F6F35B1CB3E70120C2E701EB4101401E0A
:10268000B0FBF1F0401CC0F30B00B7E7A0860100DF
:1026900080841E0000093D0040420F002DE9FF4FDD
:1026A00081B089460446FFF72FFF054694F83D00A8
:1026B0004FF0010820287DD11923012250492046DE
:1026C000009501F013F8002874D194F83C0001281B
:1026D00070D0012084F83C0020680168C90703D14C
:1026E000016841F0010101602068016821F4006186
:1026F0000160242084F83D00002626644148E06201
:102700004FF0011B20272068016841F480710160AF
:102710000095002259462046049B00F0E7FF50B187
:1027200020680068C00502D54FF4007020640320C3
:1027300005B0BDE8F08F216809F0FE000861FFF7E1
:10274000E3FE2168054648694969C0F34000C1F3CA
:1027500080214FF0A00A0FE0FFF7D6FE411B04983E
:10276000814200D808B984F83DA0216848694969C8
:10277000C0F34000C1F3802194F83D20A02A02D08C
:1027800008B90029E8D084F83D7020684169C94340
:10279000890716D4016841F400710160206841691D
:1027A00080691923012216492046009500F09EFFFA
:1027B000B8B900E021E084F83D7084F83C60002066
:1027C000B6E7016841F40071016021686FF4806030
:1027D0004861192301220A492046009500F086FF2E
:1027E00008B10120A4E7039808F1010880458AD3C5
:1027F00084F83D7084F83C60F3E7022098E700001D
:10280000020010000000FFFF2DE9F84F1F46904620
:102810008A460446DDF82890FFF776FE054694F8D0
:102820003D0020287FD119230122404920460095F0
:1028300000F05CFF002876D194F83C00012872D0AB
:10284000012084F83C0020680168C90703D10168B1
:1028500041F0010101602068016821F4006101601C
:10286000212084F83D00102084F83E0000262664D4
:10287000C4F824806785608D20852D48E0622B4652
:102880004A465146204600F0BDFE90B92068416995
:102890008069009036E02A464946204600F0A5FFB0
:1028A00050B1206C042804D12068016841F4007103
:1028B00001600120BDE8F88F606A21680078086136
:1028C000606A401C6062618D491E6185218D491ED0
:1028D00089B2218522685369DB435B070BD451B170
:1028E00000781061606A401C6062608D401E6085E7
:1028F000208D401E20852A464946204600F0D0FE05
:102900000028CED1208D0028C5D154F83D0B016898
:1029100041F400710160202004F81E09E677667713
:102920000020C7E7FFE70220C4E700000200100014
:102930000000FFFF10B586B0044614216846FDF77D
:10294000C4FD13492068884220D11248016841F033
:10295000020101600068694600F002000590C02095
:102960000090122001900120029003200390042087
:1029700004900948FFF7C2FC06481030016841F492
:1029800000110160006800F40010059006B010BD51
:102990000054004030380240000402400248816880
:1029A0000278114481607047780000200B4810B510
:1029B000016841F400710160016841F480610160C7
:1029C000016841F480710160032000F061F80F207C
:1029D00000F006F800F024F8002010BD003C024092
:1029E00070B50D4D04464FF47A712878B1FBF0F0C4
:1029F0000A490968B1FBF0F000F0D7FD48B9102C86
:102A000007D200222146501E00F022F800206C6000
:102A100070BD012070BD00007800002084000020FF
:102A20000A4808B5016841F480410160006800F47B
:102A3000804000900548001F016841F0805101600E
:102A4000006800F08050009008BD0000443802404B
:102A5000F0B40E4B1B680C46C3F30223C3F1070509
:102A6000042D00D90425191D072901D2002300E0F7
:102A7000DB1E012606FA05F1491E214099409E40C1
:102A8000761E16403143F0BC01F0DDBA0CED00E0DB
:102A9000064900F0070208684FF6FF03184040EAB5
:102AA0000220034A10430860704700000CED00E06C
:102AB0000000FA052DE9F0470E46050065D0DFF865
:102AC0001481D8F80000F7B200F00700B04207D236
:102AD00088F80070D8F8000000F00700B04254D128
:102AE00028683D4C810712D5400703D5206840F483
:102AF000E05020602878000703D5206840F460404B
:102B000020602068A96820F0F00008432060287841
:102B1000C0072DD0304968680839012812D0022832
:102B200013D0032811D00968890700292DDA2168FC
:102B300021F0030101432160FFF7E6FC814641F2E9
:102B4000883A0EE009688903EFE709688901ECE734
:102B5000FFF7DAFCA0EB0901514502D90320BDE8DB
:102B6000F0872068696800F00C00B0EB810FEFD1AE
:102B7000D8F80010404601F00701B14207D90770AC
:102B8000006800F00700B04201D00120E7E7287894
:102B9000400705D52068E96820F4E050084320602C
:102BA0002878000706D52068296920F4604040EAAB
:102BB000C100206000F02EF82168084AC1F303111B
:102BC000515CC8400649086006480068FFF708FFE6
:102BD0000020C4E7003C0240083802408848000852
:102BE000840000207C00002001480068704700003D
:102BF000840000200448054900680968044AC1F3BC
:102C00008221515CC840704784000020083802408F
:102C100098480008154810B5006810F00C021448D8
:102C200013D01449042A0FD0082A0ED10F4C241FA8
:102C30002268236802F03F025B0207D52068C0F3D8
:102C40008810A0FB010106E0084610BD2168C1F311
:102C50008811A1FB00010023FDF75CFB2168C1F393
:102C60000141491C4900B0FBF1F010BD0838024099
:102C70000024F40040787D012DE9F84F04006ED067
:102C80002078DFF84C93C007A9F104054AD009F178
:102C900004000168C1F38101012908D00068C0F374
:102CA000810002280AD1D9F80000400206D5286820
:102CB000800337D560680028E1D033E06068B0F564
:102CC000803F10D0B0F5A02F286810D020F48030BD
:102CD0002860286820F4802028606068A8B1FFF789
:102CE00013FC06460DE0286840F48030F4E740F419
:102CF00080202860F7E700BFFFF706FC801B6428F0
:102D000073D828688003F7D50CE0FFF7FDFB064673
:102D100005E000BFFFF7F8FB801B6428F0D82868A7
:102D20008003F7D42078DFF8AC8280074FF0000AE8
:102D30003ED5A748001D016811F00C0F08D00068AF
:102D4000C0F3810002280BD1D9F80000400207D45B
:102D50002868800716D5E068012800D112E033E129
:102D6000E068B8B10120C8F80000FFF7CDFB0646C7
:102D700005E000BFFFF7C8FB801B0228C0D8286809
:102D80008007F7D52868216920F0F80040EAC100E3
:102D900028600DE0C8F800A0FFF7B6FB064604E087
:102DA000FFF7B2FB801B02281FD828688007F7D4E2
:102DB0002078000722D5864F87486169703771B146
:102DC00001210160FFF7A0FB064604E0FFF79CFB32
:102DD000801B022809D838688007F7D50EE0C0F8B4
:102DE00000A0FFF791FB064605E082E0FFF78CFBB1
:102DF000801B02287DD838688007F7D420784007E8
:102E000068D5DFF8CCB100270BF13C0BDBF80000F4
:102E1000C0000BD4DBF8001041F08051CBF800105B
:102E2000DBF80000012700F0805000906B4E306806
:102E3000C00510D4306840F480703060FFF764FB48
:102E4000009005E0FFF760FB0099401A022850D877
:102E50003068C005F6D55E4EA0686C3601280FD0EC
:102E60000528306810D020F001003060306820F074
:102E700004003060A068B8B1FFF746FB00900FE097
:102E8000306840F00100F4E740F004003060F7E7FC
:102E9000FFF73AFB0099411A41F28830814266D827
:102EA00030688007F4D50EE0FFF72EFB009007E0B6
:102EB000FFF72AFB0099411A41F28830814256D827
:102EC00030688007F4D42FB1DBF8001021F0805176
:102ED000CBF80010A069C8B33D49091D0968C1F3CA
:102EE000810102294AD00228504607D0C8F8600064
:102EF00000E03CE0FFF708FB04463BE04746C8F82B
:102F00006000FFF701FB064605E000BFFFF7FCFA93
:102F1000801B02282BD828688001F7D4D4E9070148
:102F20000843A16A2E4A490802EB0141626A41EA5C
:102F30008211084394F82C1040EA0161C9F800108E
:102F400001203866FFF7E0FA044606E03EE000BFE5
:102F5000FFF7DAFA001B022809D828688001F7D5A4
:102F600034E000BFFFF7D0FA001B022802D903208B
:102F7000BDE8F88F28688001F4D427E00128F7D055
:102F8000D9F80000E26900F4800191421CD1226A64
:102F900000F03F01914217D147F6C071626A0140CB
:102FA000B1EB821F10D1A26A4FF0FF3300F4403121
:102FB00003EB5202B1EB024F06D194F82C1000F053
:102FC0007060B0EB016F01D00120D1E70020CFE7A6
:102FD0000438024000004742800E47420070004023
:102FE0000000FFFF70B5040009D0606A002540B101
:102FF00025616561A56294F8510040B10CE00120A3
:1030000070BD6068B0F5827FF4D0E561F2E784F8C6
:103010005050204600F044F8022084F85100206807
:10302000016821F040010160A088218900F48270CC
:1030300001F404410843A18901F400610843217CA3
:1030400001F002010843217D01F001010843218BB9
:1030500001F400710843217F01F03801084394F81E
:10306000201001F080010843218D01F40051084334
:1030700021680860A069042101EA104094F8241036
:1030800001F010010843216848602068C16921F4FB
:103090000061C1616565012084F85100002070BDA8
:1030A00010B586B0044614216846FDF70EFA1349A0
:1030B0002068884220D112480021026842F48052E0
:1030C0000260006800F4805005900D4814380268D2
:1030D00042F001020260006800F001000590E0206B
:1030E00000900220CDE90101032003900520049007
:1030F00069460448FFF702F906B010BD00300140F0
:1031000044380240000002402DE9F84F0446406870
:103110000025984616460F464FF0040BB0F5827F07
:1031200001D1A06888B194F85000012818D001207E
:1031300084F85000FFF7E8F9814694F851004FF009
:10314000000A01280ED0022582E084F851B013460F
:103150000A462046CDF8008000F036F9BDE8F88F29
:103160000220FBE7002F72D0002E70D084F851B0FF
:10317000C4F854A0A763A687E687C4F830A0A4F8D3
:1031800034A0A4F836A0C4F840A0C4F844A0A068B5
:10319000B0F5004F09D12068016821F040010160BD
:1031A0002068016821F480410160206801684906B7
:1031B00003D4016841F040010160E068D8B139E012
:1031C00020688168C90709D0007BA16B0870A06BDB
:1031D000401CA063E08F401EE0870CE0FFF794F9ED
:1031E000A0EB0901414503D3B8F1FF3F03D036E01E
:1031F000B8F1000F33D0E08F0028E1D11DE0206846
:103200008168C90709D0C068A16B0880A06B801CC9
:10321000A063E08F401EE0870CE0FFF775F9A0EB9C
:103220000901414503D3B8F1FF3F03D017E0B8F1DE
:10323000000F14D0E08F0028E1D14A4641462046D5
:1032400000F073FC08B120206065606D00B10125BD
:10325000012084F8510084F850A028467EE7032519
:10326000F6E72DE9F84F044690F8500000271D4678
:103270001646894601280DD04FF0010B84F850B056
:10328000FFF742F9804694F85100BA46012804D06D
:10329000022793E00220BDE8F88FB9F1000F73D048
:1032A000002E71D0032084F85100C4F854A0C4F853
:1032B0003090A686E686C4F838A0A4F83CA0A4F80E
:1032C0003EA0C4F844A0C4F840A0A068B0F5004FE8
:1032D00009D12068016821F040010160206801687F
:1032E00041F48041016020680168490603D4016807
:1032F00041F040010160E068B0F5006F606803D004
:1033000030B3012E24D041E008B1012E1CD1206B36
:1033100021680088C86006E020688168890709D5AF
:10332000216B0988C160206B801C2063E08E401EE9
:10333000E08609E0FFF7E8F8A0EB0800A84202D316
:10334000681C01D031E07DB3E08E0028E4D120E09C
:10335000206B21680078087306E02068816889077F
:1033600009D5216B09780173206B401C2063E08E26
:10337000401EE0860AE0FFF7C7F8A0EB0800A8426D
:1033800003D3681C02D010E017E06DB1E08E002876
:10339000E3D142462946204600F0F6FB08B1202042
:1033A0006065A06818B106E0FFE7032706E0206823
:1033B000C16880680090606D00B1012784F851B049
:1033C00084F850A0384666E72DE9F84F044690F897
:1033D000500000270A9E1D4692468B464FF0010979
:1033E00001280ED0012084F85000FFF78DF88046A8
:1033F00094F85100616801280CD0B1F5827F07D1A3
:1034000002E00220BDE8F88FA16809B9042801D0C4
:103410000227C2E0BBF1000F27D0BAF1000F24D081
:103420001DB394F85100042802D0052084F85100FF
:1034300000206065C4F838A0E587A587C4F830B0DF
:10344000E586A5862064606420680168490603D487
:10345000016841F040010160E068B0F5006F60680C
:1034600005D0E8B3012D46D07FE0012795E008B1F3
:10347000012D39D1206B21680088C860206B801C29
:103480002063E08E401EE0862EE020688168890778
:103490000FD5E18E69B1B9F1010F0AD1216B09880D
:1034A000C160206B801C2063E08E401EE0864FF0E0
:1034B000000920688168C9070CD0E18F51B1C0684C
:1034C000A16B0880A06B801CA063E08F401EE0878A
:1034D0004FF00109FFF718F8A0EB0800B04200E038
:1034E00009E001D3701C50D1E08E0028CDD1E08FCF
:1034F0000028CAD13FE0206B216800780873206B58
:10350000401C2063E08E401EE0862EE0206881682B
:1035100089070FD5E18E69B1B9F1010F0AD1216B8D
:1035200009780173206B401C2063E08E401EE0860A
:103530004FF0000920688168C9070CD0E18F51B1B4
:10354000C068A16B0870A06B401CA063E08F401E98
:10355000E0874FF00109FEF7D7FFA0EB0800B0426B
:1035600002D3701C01D010E07EB1E08E0028CDD1D6
:10357000E08F0028CAD142463146204600F004FBC5
:1035800028B101272020606507E0032705E0A06837
:1035900018B92068C16880680090012084F8510043
:1035A000002084F8500038462CE710B5401EB0F1DA
:1035B000807F01D3012010BD4FF0E02460610F2116
:1035C000601700F040FD0020A0610720206100206E
:1035D00010BDFEE701684A69D24352050FD46FF46B
:1035E00080624A61002140F8301F202242738173BB
:1035F000026942F004020261017301207047002059
:1036000070470000F8B50446C06A1E460D461746CE
:10361000082807D0012805D010F5803F02D0206B84
:10362000122804D12068016841F4807101601346BA
:1036300000224FF001112046009600F057F840B1EB
:1036400020680068C00502D54FF400702064032094
:10365000F8BD2069B0F5804F0ED00620216800EA41
:10366000D51040F0F000086133463A460B49204639
:1036700000F070F878B902E005F0FE0000E0E8B272
:1036800021680861054933463A46891F204600F003
:1036900061F80028DCD00120F8BD0000080001001E
:1036A00070B516460D4604460DE02046FFF792FF22
:1036B00008B1012070BD681C05D0FEF725FF801BF6
:1036C000A84207D835B120684069C0434007ECD410
:1036D000002070BD002044F8300F20216173A073DA
:1036E000216941F0200121612073E2E72DE9F047D3
:1036F0001E4690460D460446C1F30747DDF820906C
:1037000008E0701C06D0FEF7FFFEA0EB0900B042F7
:103710000FD876B12068012F18D0806925EA000003
:103720000004000C14D000214145EAD00020BDE87F
:10373000F087002044F8300F20216173A0732169C5
:1037400041F02001216120730120F0E74069E5E7A5
:103750000121E9E72DE9F0479A4691460E460446D5
:1037600000254FF02008C1F3074725E02068406995
:10377000C043400514D42068016841F40071016021
:1037800021686FF480604861256384F83D8084F887
:103790003E50206C40F00400206484F83C501FE050
:1037A000B9F1FF3F08D0FEF7AFFEA0EB0A01494593
:1037B0000CD8B9F1000F09D02068012F13D080690F
:1037C00026EA00000004000C0BD0CFE744F8305F7D
:1037D00084F80D80A573206940F0200020612573D6
:1037E0000120BDE8F0874069EAE770B516460D464E
:1037F00004460DE02046FFF7EDFE08B1012070BD44
:10380000681C05D0FEF780FE801BA84207D835B1A2
:1038100020684069C0430006ECD4002070BD002041
:1038200044F8300F20216173A073216941F0200119
:1038300021612073E2E7000038B50C4600218DF8C5
:103840000010014658222748FCF70DFEE0780122BF
:1038500000F007008DF80000217801F0F00101432D
:103860008DF800106946202000F094F8A078617867
:1038700000F0C00001F0380101438DF80010012272
:103880006946242000F086F8207938B188208DF828
:10389000000001226946232000F07CF8617812487C
:1038A000102916D003DC39B108290CD107E01829FA
:1038B00012D0202907D112E09FED0C0A01E09FED04
:1038C0000C0A80ED000A012208210A48FEF716FEC4
:1038D00038BD9FED090AF4E79FED080AF1E79FED77
:1038E000080AEEE77C0100201C0000208FC2753D15
:1038F0008FC2F53D00100240EC51383E8FC2753E3C
:1039000048E13A3F38B50546FEF7FEFD0446012280
:103910006946272000F010F89DF80000400708D104
:10392000FEF7F2FD001BA842F1D39DF8000040070E
:1039300000D0012038BD0000F8B540F08000134EE3
:1039400015460C468DF80000002208213046FEF78F
:10395000D5FD0A23012269460D48FFF782FC0A23A0
:103960002A4669460A48FFF7CFFB01220821304664
:10397000FEF7C4FD00206A4605F0030103E0135C76
:103980002354401CC0B28142F9D8F8BD0010024057
:103990007C010020F8B50E4E14460D468DF800004F
:1039A000002208213046FEF7A9FD0A2301226946BC
:1039B0000848FFF756FC0A23224629460548FFF728
:1039C00050FC012208213046FEF798FDF8BD0000AA
:1039D000001002407C0100207FB5002414480094B0
:1039E0000194029411490394C0E9001484600461B5
:1039F000047680F820400F49C0E90A140125C5610A
:103A0000C46080F830404561FEF719FB08B172B61A
:103A1000FEE70095CDE9015469460548FEF766FAD0
:103A2000002801D072B6FEE77FBD000000200140F3
:103A3000880000200100000F2DE9F04186B014211C
:103A40006846FCF742FD23480024016841F010015C
:103A50000160016801F010010591016841F0010168
:103A60000160016801F001010591016841F0080160
:103A70000160016801F008010591016841F002014F
:103A800001600068144F00F0020005900122082137
:103A90003846FEF733FDDFF844804FF470460022CD
:103AA00031464046FEF72AFD082000900125CDE969
:103AB0000154694638460394FEF720FC0096CDE990
:103AC0000154694640460394FEF718FC06B0BDE871
:103AD000F08100003038024000100240000C02402B
:103AE0000F4810B50D4901604FF48271416000210B
:103AF0008160C1604FF400720161C0E905121022BB
:103B0000C0E90721416281620A21C162FFF76AFAB6
:103B1000002801D072B6FEE710BD00000030014061
:103B200024010020FEE7FEE77047F8B50446406830
:103B30004FF48273984221D1A0684FF48065B0F5AC
:103B4000004F01D0A8420AD12068066826F040063E
:103B500006606068984211D1A068A8420ED0009219
:103B60000B4600228021204600F03AF8002804D0BD
:103B7000606D40F0200060650320F8BD00920B46A8
:103B800000220121EFE7000038B504461248134B2C
:103B90000068B0FBF3F04FF47A735843009060680C
:103BA000B0F5827F0DD10B46009200228021204685
:103BB00000F016F870B1606D40F0200060650320E1
:103BC00038BD009830B1401E009020688068C04326
:103BD0000006F6D5002038BD8400002000366E01B6
:103BE0002DE9F8431E46914688460446089DFEF797
:103BF0008BFC401B351AFEF787FC074625480068FA
:103C0000C0F3CB30684338E0701C37D0FEF77CFC43
:103C1000C01BA84203D215B1009860B32CE0206805
:103C2000416821F0E00141606068B0F5827F0BD10E
:103C3000A068B0F5004F02D0B0F5806F04D12068C5
:103C4000016821F040010160A06AB0F5005F09D170
:103C50002068016821F4005101602068016841F486
:103C600000510160012084F85100002084F85000C8
:103C70000320BDE8F8830025401E0090206881687D
:103C800038EA010004D000214945BDD10020F0E709
:103C90000121F9E7840000202DE9F04F87B01421BD
:103CA0006846FCF712FC0025FEF7FCF8DFF81491DB
:103CB000DFF814A1DFF814B14FF0010800244448E4
:103CC000C5EBC501002600EB810700BF57F82600B1
:103CD00048450AD1DAF8002042F00102CAF8002073
:103CE000DAF8001001F0010136E03A4988420AD1C1
:103CF000DAF8002042F00202CAF80020DAF80010D8
:103D000001F0020128E0344988420AD1DAF80020A3
:103D100042F00402CAF80020DAF8001001F00401B1
:103D20001AE02E4988420AD1DAF8002042F008024F
:103D3000CAF80020DAF8001001F008010CE0284968
:103D400088420AD1DAF8002042F01002CAF80020B6
:103D5000DAF8001001F01001059107EB4601098A1D
:103D60000091CDE9018469460394FEF7C7FA761CF9
:103D7000F6B2042EAAD305EB85020BEB8200447445
:103D8000C4734BF82240446084608473F97E012937
:103D900003D011B1022902D003E0042100E0082180
:103DA00001746D1C15F0FF0589D0CDF80080CDE9B8
:103DB0000184694607480394FEF7A0FA07B0BDE8FE
:103DC000F08F00000000024030380240D401002093
:103DD0006C4800080004024000080240000C024049
:103DE000001002402DE9F041294BC0EBC00703EB66
:103DF00087052849AA7E00EB800001EB80047ABB8E
:103E0000E87E20B1012805D0022807D028E0E07B19
:103E1000214E06E0204EE07B103602E01E4EE07B95
:103E20002036298A16F8202053F82700FEF766FB73
:103E3000E07B698A06EB800042786868FEF75EFBEB
:103E4000E07BA98A06EB80008278A868FEF756FB23
:103E5000E07BE98A06EB8000C278E868FEF74EFB5B
:103E6000607C01280CD0002808D1E07B401CC0B247
:103E7000E073217C884201D10020E073BDE8F0812D
:103E8000E07B08B9207CE073C0B2401EF5E700007B
:103E90006C480008D40100203800002010B5104AFA
:103EA00000EB800302EB8304C0EBC0020D48A1814C
:103EB00000EB8200C27E008B022A00D14000484302
:103EC00000F063FC41EC100B53EC102B9FED060B44
:103ED00051EC100B00F0D4FA00F02AFCA06010BDE9
:103EE000D40100206C48000800000000004CED40A8
:103EF0002DE9F84F064600EB86021948894600EB8B
:103F000082050121A973174AC6EBC60102EB8101A4
:103F1000A889098B002448434EF6602191FBF0F8F4
:103F2000DFF844A04FF47A7B14E03046FFF75AFFE5
:103F3000CDF80080DAF80470FEF756FEB0FBFBF017
:103F400000994143504600914168009AC91B914233
:103F5000FAD3641C4C45E8D30020A873BDE8F88F61
:103F6000D40100206C480008001000E0034A00EB78
:103F70008000002142F8201070470000D40100208A
:103F80007047FEF70BBD000010B592B030216846B7
:103F9000FCF79BFA14210CA8FCF797FA17480024A9
:103FA000016841F080510160006800F0805011907C
:103FB0001348016841F4804101600068069400F4F0
:103FC0008040119002200090012003901020049066
:103FD0006846FEF751FE08B172B6FEE70F20CDE944
:103FE0000C040E940F9400210CA81094FEF762FDAF
:103FF000002801D072B6FEE712B010BD4038024072
:10400000007000400248016841F47001016070478F
:1040100088ED00E0FEE703B401984100009850EA03
:10402000C12018BF04204A0D18BF40F0010040F223
:10403000FF72B2EB515F08BF40F00200012808BFD9
:10404000052002B070470907090E002804DB00F1C3
:10405000E02080F80014704700F00F0000F1E0202D
:1040600080F8141D704730380A2801D201207047AB
:10407000002070470021012000F0BEB810B50120DB
:1040800000F09AF8BDE810400320FEF725B90000C3
:1040900070B505463220FEF71FF92A4C2846052246
:1040A00065604FF4FA752B464E21FEF7F7FA0028AB
:1040B00045D02B4605227E216068FEF7EFFA08B155
:1040C000002070BD7E2020702D20FEF705F93020E5
:1040D00000F072F80520FEF7FFF8302000F06CF8D1
:1040E0000120FEF7F9F8302000F066F80820FEF70E
:1040F000F3F8202000F060F80820FEF7EDF8282003
:1041000000F05AF80120FEF7E7F8082000F054F814
:104110000120FEF7E1F8012000F04EF80320FEF741
:10412000DBF8062000F048F80120FEF7D5F80C2057
:1041300000F042F80320FEF7CFF8012070BD4E20BA
:10414000C1E70000140000200FB410B588B00BAA1E
:1041500001A80A99FCF756F900241FE001A80423DE
:10416000015D080101F0F00141F00D028DF8182009
:1041700041F009018DF8191040F00D018DF81A1069
:1041800040F009008DF81B00C8200090094806AADD
:1041900001784068FEF738FB641CE4B201A8FCF724
:1041A00043F9A04201D9102CD8D308B010BC5DF857
:1041B00014FB0000140000201CB5010100F0F00009
:1041C00040F00C028DF8042040F008008DF8050046
:1041D00041F00C008DF8060041F008008DF8070052
:1041E000C82000900348042301AA01784068FEF724
:1041F0000BFB1CBD1400002001F00F0120B141F0A9
:10420000C00000BFFFF7D8BF41F08000FAE7000010
:10421000FEF7CCFBFFF7B8FEFFF70EFCFFF7DCFB69
:1042200061486049002401606049C0E901144FF40D
:104230008048C0E9034844618461C4610462FEF7B8
:1042400069F908B172B6FEE7FFF74AFC5648FFF776
:104250001FFFFFF721FD5648C021817030210170FA
:104260000121C17008214170047101464E4854304B
:10427000FFF7E2FA0A210020FFF710FE4C4D4D4EE9
:10428000AD1D4FF47A79A5F10E0440F6B8374FF41E
:10429000005A45484838FDF783FF4846FFF732FB90
:1042A0000028F6D0404805214838FDF723FF0028B4
:1042B000EFD14FF480513046FEF718F93C49022205
:1042C00008392820FFF738FB39480838017840784A
:1042D00001EB0020288034484838FDF7ADFE6060CF
:1042E000FFF7CCFE34A06168FFF72EFFFFF7C2FE98
:1042F000B5F9001034A0FFF727FFB5F90000B0F5BD
:10430000C87F1CDD6168B94219D941463046FEF7C5
:10431000EDF84FF400413046FEF7E8F8FFF7AEFE47
:104320002CA0FFF711FFFFF7A5FE2EA0FFF70CFF53
:10433000002241F270711046FFF7DAFDA9E700286C
:10434000A7D16068B84214D94FF00000FFF70EFE05
:1043500015484838FDF7A2FF51463046FEF7C6F82B
:10436000FFF78CFE23A0FFF7EFFEFFF783FE24A0EC
:1043700014E08ED24FF00000FFF7F8FD0A484838ED
:10438000FDF78CFF51463046FEF7B0F8FFF776FE9A
:1043900018A0FFF7D9FEFFF76DFE1DA0FFF7D4FEB2
:1043A00077E7000000540040D0000020A086010004
:1043B00008000020000C024041646A7573742050AC
:1043C000203D2025640000004178652058203D20D4
:1043D000256400004D6F746F722072756E6E696E89
:1043E000670000005370656564203D203130205225
:1043F000504D00004D6F746F722053746F70000049
:1044000061646A757374205820616761696E000089
:1044100061646A757374205820616E642050206155
:104420006761696E0000000010B500290AD00878A5
:10443000002807D005487844FDF78EF8002801D001
:10444000002010BD0248784410BD00008605000021
:104450007E05000010B500290AD00878002807D092
:1044600005487844FDF778F8002801D0002010BDF9
:104470000248784410BD0000760500006E0500007B
:104480002DE9C04130B4DFF8A0C23CEA111418BFD6
:104490003CEA131400F0EC8081EA03051CEA1114D5
:1044A00044EAD57418BF1CEA131500F0C780A4EBCA
:1044B00005044FF0004545EAC12145EAC32341EA1E
:1044C000505143EA525304F17F74994204F5003489
:1044D0004FEAC0204FEAC22208BF904200F09C8001
:1044E0004FEA13650FF24016765D4FEA134506FB5F
:1044F00005F7C7F1807706FB07F74FEAD737A7FB29
:1045000003687642C8F58038A7FB06CE38BFA8F10D
:10451000010807FB08E64FF0000EA6FB028CE6FB45
:1045200003CEDCF1000CCEF1004E38BFAEF1010E2F
:10453000A6FB0C584FF000074FF00005E6FB0E8776
:10454000A1FB08C6A0FB07CE16EB0E0645F1000541
:10455000E1FB076515F1E04E7EBFA4F580345FEA0C
:1045600046066D4116F1800745F100054FEA172711
:104570004FEA066647EA0567A6F1DE46B6F1805FB8
:104580004FEA15251FD9384624F0010C05EBC471FC
:10459000BCF1FE6F01EB0C1102D8F0BCBDE800814C
:1045A00024425CBF01F5801E9EEAC47F02D4F0BCA9
:1045B000BDE80081244238D4F0BCA1F1C041BDE87F
:1045C000004100F043B94FEAD22242EA43524FEA97
:1045D000D323A7FB02864FEAD02040EA415007FBD5
:1045E00003661EEA0E0F4FEAD12105FB026658BF93
:1045F000A6EB0056B6EB00564FEA520E4EEAC37ECB
:1046000018EB0E0E56EB530EBDD518EB02085E41AB
:104610007F1C55F10005B6E74FF480154FF00007F9
:104620004FF000064FF00008ADE7F0BC4FF000007F
:1046300001F1C04101F00041BDE8008111EA0C1F09
:104640000CEA131500D00CE013EA0C1F00F02580D3
:104650004FF00000F0BC81EA030101F00041BDE829
:104660000081F0BCBDE8004181EA030100F0EEB832
:10467000F0BCBDE8004170B500F09AF8097EFC3E40
:1046800000F007B881EA03014FF0000001F000419B
:10469000704781EA030100F0D9B8F0BCBDE80041E1
:1046A0004FF0000021497047FFFDFBF9F7F5F4F2E8
:1046B000F0EEEDEBE9E8E6E4E3E1E0DEDDDBDAD8BD
:1046C000D7D5D4D3D1D0CFCDCCCBCAC8C7C6C5C41B
:1046D000C2C1C0BFBEBDBCBBBAB9B8B7B6B5B4B332
:1046E000B2B1B0AFAEADACABAAA9A8A8A7A6A5A41D
:1046F000A3A3A2A1A09F9F9E9D9C9C9B9A999998E1
:104700009797969595949393929191908F8F8E8E83
:104710008D8C8C8B8B8A8989888887878685858410
:1047200084838382828181800000FF070000F87FFC
:104730004FEA1153A3F58063D3F11E03A8BFD3F151
:10474000200C08DB4FF0004242EAC12252EA5052EC
:1047500032FA03F0704709420BD4102BC4BF00207B
:10476000704703F5787CBCF1FF3F05D04FF0FF3078
:1047700070474FF00000704770B500F019F800BFA7
:104780004992248000207047F0E7B0FA80F310FAD5
:1047900003F10AD0C3F11D0303F580634FEA4150D2
:1047A0004FEA035202EBD12170474FF000007047EF
:1047B0000EF1020E2EF0030E5EF8046B364205D4A5
:1047C000012A43EB030515F5001F12D8012841EB20
:1047D000010C1CF5001F0CD80ED14FEAD17C15F549
:1047E000001F0CEB4C0C0CF1020C08BF4CEBD37C03
:1047F00004E04FF0080C01E04FEAD37C0CEB4C05D1
:1048000026FA05F606F00706B6F1040C06D20EEB02
:10481000860CBDE870404CF0010C6047DFE80CF0FE
:10482000090B02024FF000414FF00000A1F50021FA
:1048300070BD19461046012851EB010418BFD4F58C
:10484000001484BF002001F0004170BD0808A0F5ED
:1048500000114FEA310170474FF04070E1EE100A4D
:104860007047FCF786BAFCF7BBBB000000100240A3
:1048700000100240000C0240000C0240800000804A
:1048800000040008F607000000000000000000001F
:1048900001020304060708090000000001020304E6
:1048A000000000000000000030313233343536376C
:1048B0003839414243444546403058003031323364
:1048C0003435363738396162636465664030780064
:1048D00004000008000000000000000200010000C9
:1048E00010303132333435363738396162636465BC
:1048F00066787000303132333435363738394142DA
:10490000434445465850000002400000000000A00B
:104910000000000005400000000000C8000000008A
:104920000C4000000000409C000000001940000006
:104930000020BCBE0000000034400000BFC91B8E38
:1049400000000004B5400000504BCFD06607E2CF16
:10495000010000006C4100003E8251AADFEEA73446
:1049600001000000D9420000DCB5A0E23A301F97F8
:10497000FFFFFFFFB4450000FD25A0C8E9A3C14F1C
:10498000FFFFFFFFFF3F000000000080000000006D
:10499000FF3F00000000008000000000E84A00081F
:1049A0000000002088000000C4010008704B0008CF
:1049B00088000020C0070000E00100081C00000083
:1049C00043000000F8FFFFFF0C0000000E00000095
:1049D0000F0000002E000000100100004300000046
:1049E000F8FFFFFF00404040404040404040414110
:1049F00041414140404040404040404040404040B4
:104A0000404040404005020202020202020202024D
:104A1000020202020220202020202020202020024A
:104A200002020202020290909090909010101010DA
:104A30001010101010101010101010101010101076
:104A4000020202020202888888888888080808080A
:104A500008080808080808080808080808080808D6
:104A600002020202400000000000000000000000FE
:104A70000000000000000000000000000000000036
:104A80000000000000000000000000000000000026
:104A90000000000000000000000000000000000016
:104AA0000000000000000000000000000000000006
:104AB00000000000000000000000000000000000F6
:104AC00000000000000000000000000000000000E6
:104AD00000000000000000000000000000000000D6
:104AE00000000000000000000000000000000000C6
:104AF00000000000000000000000000000000000B6
:104B0000000000008FC2753D0000000000000000A2
:104B1000000000000000803F0000803F0000803F58
:104B20000100000000010000000001000000000181
:104B3000010100000001010000000101010000016D
:104B4000010000000101000000010000000101005F
:104B5000000001000000010100000001010000014F
:104B60000100000010000000000000000024F4001C
:040000050800018965
:00000001FF
